{
    "contractName": "Delega",
    "abi": [
        {
            "inputs": [],
            "stateMutability": "nonpayable",
            "type": "constructor"
        },
        {
            "anonymous": false,
            "inputs": [
                {
                    "indexed": false,
                    "internalType": "address",
                    "name": "delegated",
                    "type": "address"
                },
                {
                    "indexed": false,
                    "internalType": "address",
                    "name": "institution",
                    "type": "address"
                },
                {
                    "indexed": false,
                    "internalType": "string",
                    "name": "service",
                    "type": "string"
                }
            ],
            "name": "LogDelegation",
            "type": "event"
        },
        {
            "anonymous": false,
            "inputs": [
                {
                    "indexed": false,
                    "internalType": "address",
                    "name": "user",
                    "type": "address"
                }
            ],
            "name": "LogUserAuthorized",
            "type": "event"
        },
        {
            "anonymous": false,
            "inputs": [
                {
                    "indexed": false,
                    "internalType": "string",
                    "name": "code",
                    "type": "string"
                }
            ],
            "name": "debug",
            "type": "event"
        },
        {
            "inputs": [
                {
                    "internalType": "address",
                    "name": "institution",
                    "type": "address"
                }
            ],
            "name": "addInstitution",
            "outputs": [],
            "stateMutability": "nonpayable",
            "type": "function"
        },
        {
            "inputs": [
                {
                    "internalType": "string",
                    "name": "service",
                    "type": "string"
                }
            ],
            "name": "addService",
            "outputs": [],
            "stateMutability": "nonpayable",
            "type": "function"
        },
        {
            "inputs": [
                {
                    "internalType": "address",
                    "name": "user",
                    "type": "address"
                }
            ],
            "name": "addUser",
            "outputs": [],
            "stateMutability": "nonpayable",
            "type": "function"
        },
        {
            "inputs": [
                {
                    "internalType": "address",
                    "name": "",
                    "type": "address"
                }
            ],
            "name": "authorizedInstitutions",
            "outputs": [
                {
                    "internalType": "bool",
                    "name": "",
                    "type": "bool"
                }
            ],
            "stateMutability": "view",
            "type": "function"
        },
        {
            "inputs": [
                {
                    "internalType": "address",
                    "name": "",
                    "type": "address"
                }
            ],
            "name": "authorizedUsers",
            "outputs": [
                {
                    "internalType": "bool",
                    "name": "",
                    "type": "bool"
                }
            ],
            "stateMutability": "view",
            "type": "function"
        },
        {
            "inputs": [
                {
                    "internalType": "address",
                    "name": "delegated",
                    "type": "address"
                },
                {
                    "internalType": "address",
                    "name": "institution",
                    "type": "address"
                },
                {
                    "internalType": "string",
                    "name": "service",
                    "type": "string"
                }
            ],
            "name": "checkDelegationUser",
            "outputs": [
                {
                    "internalType": "bool",
                    "name": "",
                    "type": "bool"
                }
            ],
            "stateMutability": "view",
            "type": "function"
        },
        {
            "inputs": [
                {
                    "internalType": "address",
                    "name": "institution",
                    "type": "address"
                },
                {
                    "internalType": "string",
                    "name": "service",
                    "type": "string"
                }
            ],
            "name": "checkService",
            "outputs": [
                {
                    "internalType": "bool",
                    "name": "",
                    "type": "bool"
                }
            ],
            "stateMutability": "view",
            "type": "function"
        },
        {
            "inputs": [
                {
                    "internalType": "address",
                    "name": "delegated",
                    "type": "address"
                },
                {
                    "internalType": "address",
                    "name": "institution",
                    "type": "address"
                },
                {
                    "internalType": "string",
                    "name": "service",
                    "type": "string"
                }
            ],
            "name": "delegate",
            "outputs": [],
            "stateMutability": "nonpayable",
            "type": "function"
        },
        {
            "inputs": [
                {
                    "internalType": "address",
                    "name": "user",
                    "type": "address"
                }
            ],
            "name": "institutionDelegations",
            "outputs": [
                {
                    "components": [
                        {
                            "internalType": "address",
                            "name": "delegated",
                            "type": "address"
                        },
                        {
                            "internalType": "string[]",
                            "name": "services",
                            "type": "string[]"
                        }
                    ],
                    "internalType": "struct Delega.returnValue[]",
                    "name": "",
                    "type": "tuple[]"
                }
            ],
            "stateMutability": "view",
            "type": "function"
        },
        {
            "inputs": [
                {
                    "internalType": "address",
                    "name": "institution",
                    "type": "address"
                }
            ],
            "name": "userDelegations",
            "outputs": [
                {
                    "components": [
                        {
                            "internalType": "address",
                            "name": "delegated",
                            "type": "address"
                        },
                        {
                            "internalType": "string[]",
                            "name": "services",
                            "type": "string[]"
                        }
                    ],
                    "internalType": "struct Delega.returnValue[]",
                    "name": "",
                    "type": "tuple[]"
                }
            ],
            "stateMutability": "view",
            "type": "function"
        }
    ],
    "bytecode": "608060405234801561001057600080fd5b50600080546001600160a01b031916331790556112de806100326000396000f3fe608060405234801561001057600080fd5b506004361061009e5760003560e01c806388fcd1941161006657806388fcd19414610146578063af5b229114610159578063c618d0611461016c578063d5f23cf51461017f578063f12ff5e21461019257600080fd5b806316b784fe146100a35780631828983a146100db5780631ae71a06146100fe578063421b2d8b14610111578063424db00214610126575b600080fd5b6100c66100b1366004610de6565b60036020526000908152604090205460ff1681565b60405190151581526020015b60405180910390f35b6100c66100e9366004610de6565b60026020526000908152604090205460ff1681565b6100c661010c366004610eab565b6101a5565b61012461011f366004610de6565b6102e6565b005b610139610134366004610de6565b610327565b6040516100d29190610f1d565b610124610154366004610ff8565b6105d9565b610124610167366004610de6565b610636565b61013961017a366004610de6565b610677565b6100c661018d366004611035565b610916565b6101246101a0366004611035565b610a2f565b6001600160a01b03821660009081526003602052604081205460ff166101ca57600080fd5b6000805b811580156101f357506001600160a01b03851660009081526004602052604090205481105b156102dc576001600160a01b038516600090815260046020526040902080546102c091908390811061022757610227611093565b90600052602060002001805461023c906110a9565b80601f0160208091040260200160405190810160405280929190818152602001828054610268906110a9565b80156102b55780601f1061028a576101008083540402835291602001916102b5565b820191906000526020600020905b81548152906001019060200180831161029857829003601f168201915b505050505085610d7e565b156102ca57600191505b806102d4816110f9565b9150506101ce565b5090505b92915050565b3360009081526002602052604090205460ff161561030357600080fd5b6001600160a01b03166000908152600260205260409020805460ff19166001179055565b3360009081526002602052604090205460609060ff166103625760405162461bcd60e51b815260040161035990611112565b60405180910390fd5b6001600160a01b03821660009081526003602052604090205460ff1661039a5760405162461bcd60e51b81526004016103599061113d565b3360009081526001602090815260408083206001600160a01b0386168452909152812060030154908167ffffffffffffffff8111156103db576103db610e08565b60405190808252806020026020018201604052801561042157816020015b6040805180820190915260008152606060208201528152602001906001900390816103f95790505b50905060005b828110156105d1573360009081526001602090815260408083206001600160a01b0389168452909152812060030180548390811061046757610467611093565b6000918252602090912001546001600160a01b0316905061049960408051808201909152600081526060602082015290565b6001600160a01b03808316808352336000908152600160209081526040808320948c1683529381528382209282529182528281208054845181850281018501909552808552909290919084015b82821015610592578382906000526020600020018054610505906110a9565b80601f0160208091040260200160405190810160405280929190818152602001828054610531906110a9565b801561057e5780601f106105535761010080835404028352916020019161057e565b820191906000526020600020905b81548152906001019060200180831161056157829003601f168201915b5050505050815260200190600101906104e6565b505050508160200181905250808484815181106105b1576105b1611093565b6020026020010181905250505080806105c9906110f9565b915050610427565b509392505050565b3360009081526003602052604090205460ff166105f557600080fd5b6105ff33826101a5565b1561060957600080fd5b3360009081526004602090815260408220805460018101825590835291200161063282826111b9565b5050565b3360009081526003602052604090205460ff161561065357600080fd5b6001600160a01b03166000908152600360205260409020805460ff19166001179055565b3360009081526003602052604090205460609060ff166106a95760405162461bcd60e51b81526004016103599061113d565b6001600160a01b03821660009081526002602052604090205460ff166106e15760405162461bcd60e51b815260040161035990611112565b6001600160a01b0382166000908152600160209081526040808320338452909152812060030154908167ffffffffffffffff81111561072257610722610e08565b60405190808252806020026020018201604052801561076857816020015b6040805180820190915260008152606060208201528152602001906001900390816107405790505b50905060005b828110156105d1576001600160a01b038516600090815260016020908152604080832033845290915281206003018054839081106107ae576107ae611093565b6000918252602090912001546001600160a01b031690506107e060408051808201909152600081526060602082015290565b6001600160a01b038083168083529088166000908152600160209081526040808320338452825280832093835292815282822080548451818402810184019095528085529092909184015b828210156108d757838290600052602060002001805461084a906110a9565b80601f0160208091040260200160405190810160405280929190818152602001828054610876906110a9565b80156108c35780601f10610898576101008083540402835291602001916108c3565b820191906000526020600020905b8154815290600101906020018083116108a657829003601f168201915b50505050508152602001906001019061082b565b505050508160200181905250808484815181106108f6576108f6611093565b60200260200101819052505050808061090e906110f9565b91505061076e565b3360009081526002602052604081205460ff166109455760405162461bcd60e51b815260040161035990611112565b6001600160a01b03831660009081526003602052604090205460ff1661097d5760405162461bcd60e51b81526004016103599061113d565b6001600160a01b03841660009081526002602052604090205460ff166109d95760405162461bcd60e51b81526020600482015260116024820152701a5b9d985b1a590819195b1959d85d1959607a1b6044820152606401610359565b3360009081526001602081815260408084206001600160a01b038881168652908352818520908916855290915282200190610a1384610d9a565b815260208101919091526040016000205460ff16949350505050565b3360009081526002602052604090205460ff16610a5e5760405162461bcd60e51b815260040161035990611112565b6001600160a01b03821660009081526003602052604090205460ff16610a965760405162461bcd60e51b81526004016103599061113d565b6001600160a01b03831660009081526002602052604090205460ff16610af25760405162461bcd60e51b81526020600482015260116024820152701a5b9d985b1a590819195b1959d85d1959607a1b6044820152606401610359565b610afd838383610916565b15610b4a5760405162461bcd60e51b815260206004820152601a60248201527f44656c65676174696f6e20616c72656164792070726573656e740000000000006044820152606401610359565b3360009081526001602081815260408084206001600160a01b0387811686529083528185209088168086529083529084206003810180546001600160a01b03191690921790915580549283018155835290912001610ba882826111b9565b503360009081526001602081815260408084206001600160a01b03878116865290835281852090881685529091528220909190820190610be784610d9a565b815260208082019290925260409081016000908120805460ff19169415159490941790935533835260018083528184206001600160a01b03878116865290845282852090881685529092529091205490610c419082611279565b3360009081526001602090815260408083206001600160a01b0388811685529083528184209089168452909152908190209051600290910190610c8590859061128c565b90815260408051602092819003830190209290925533600090815260018083528382206001600160a01b038881168452908452848320908916835201909152205460ff16610d78573360009081526001602081815260408084206001600160a01b03888116808752828552838720918b168088528287018652938720805460ff1916871790556003909101805480870182558188528588200180546001600160a01b031916909417909355909452929052905490610d439082611279565b3360009081526001602090815260408083206001600160a01b038981168552908352818420908a168452600201909152902055505b50505050565b6000610d8982610d9a565b610d9284610d9a565b149392505050565b600081604051602001610dad919061128c565b604051602081830303815290604052805190602001209050919050565b80356001600160a01b0381168114610de157600080fd5b919050565b600060208284031215610df857600080fd5b610e0182610dca565b9392505050565b634e487b7160e01b600052604160045260246000fd5b600082601f830112610e2f57600080fd5b813567ffffffffffffffff80821115610e4a57610e4a610e08565b604051601f8301601f19908116603f01168101908282118183101715610e7257610e72610e08565b81604052838152866020858801011115610e8b57600080fd5b836020870160208301376000602085830101528094505050505092915050565b60008060408385031215610ebe57600080fd5b610ec783610dca565b9150602083013567ffffffffffffffff811115610ee357600080fd5b610eef85828601610e1e565b9150509250929050565b60005b83811015610f14578181015183820152602001610efc565b50506000910152565b6000602080830181845280855180835260408601915060408160051b870101925083870160005b82811015610feb57603f19888603018452815180516001600160a01b0316865286015160408787018190528151908701819052908701906060600582901b88018101919088019060005b81811015610fd457898403605f1901835284518051808652610fb5818e88018f8501610ef9565b958c0195601f01601f1916949094018b019350918a0191600101610f8e565b509197505050938601935090850190600101610f44565b5092979650505050505050565b60006020828403121561100a57600080fd5b813567ffffffffffffffff81111561102157600080fd5b61102d84828501610e1e565b949350505050565b60008060006060848603121561104a57600080fd5b61105384610dca565b925061106160208501610dca565b9150604084013567ffffffffffffffff81111561107d57600080fd5b61108986828701610e1e565b9150509250925092565b634e487b7160e01b600052603260045260246000fd5b600181811c908216806110bd57607f821691505b6020821081036110dd57634e487b7160e01b600052602260045260246000fd5b50919050565b634e487b7160e01b600052601160045260246000fd5b60006001820161110b5761110b6110e3565b5060010190565b6020808252601190820152703ab730baba3437b934bd32b2103ab9b2b960791b604082015260600190565b60208082526013908201527234b73b30b634b21034b739ba34ba3aba34b7b760691b604082015260600190565b601f8211156111b457600081815260208120601f850160051c810160208610156111915750805b601f850160051c820191505b818110156111b05782815560010161119d565b5050505b505050565b815167ffffffffffffffff8111156111d3576111d3610e08565b6111e7816111e184546110a9565b8461116a565b602080601f83116001811461121c57600084156112045750858301515b600019600386901b1c1916600185901b1785556111b0565b600085815260208120601f198616915b8281101561124b5788860151825594840194600190910190840161122c565b50858210156112695787850151600019600388901b60f8161c191681555b5050505050600190811b01905550565b818103818111156102e0576102e06110e3565b6000825161129e818460208701610ef9565b919091019291505056fea26469706673582212207a841266a7b89e1a9aadcb2bb7f4899ba123c7e1bcba187f4243cce45e90d7e564736f6c63430008130033",
    "sourcePath": "/home/gabriele/Documents/EIT/first_year/classes/second_semester/blockchain/Blockchain_delegation/truffle/contracts/Delega.sol",
    "compiler": {
        "name": "solc",
        "version": "0.8.19+commit.7dd6d404"
    },
    "functionHashes": {
        "addInstitution(address)": "af5b2291",
        "addService(string)": "88fcd194",
        "addUser(address)": "421b2d8b",
        "authorizedInstitutions(address)": "16b784fe",
        "authorizedUsers(address)": "1828983a",
        "checkDelegationUser(address,address,string)": "d5f23cf5",
        "checkService(address,string)": "1ae71a06",
        "delegate(address,address,string)": "f12ff5e2",
        "institutionDelegations(address)": "c618d061",
        "userDelegations(address)": "424db002"
    },
    "gasEstimates": {
        "creation": {
            "codeDepositCost": "966000",
            "executionCost": "25236",
            "totalCost": "991236"
        },
        "external": {
            "addInstitution(address)": "26826",
            "addService(string)": "infinite",
            "addUser(address)": "26871",
            "authorizedInstitutions(address)": "2521",
            "authorizedUsers(address)": "2543",
            "checkDelegationUser(address,address,string)": "infinite",
            "checkService(address,string)": "infinite",
            "delegate(address,address,string)": "infinite",
            "institutionDelegations(address)": "infinite",
            "userDelegations(address)": "infinite"
        },
        "internal": {
            "compareStrings(string memory,string memory)": "infinite",
            "hash(string memory)": "infinite"
        }
    }
}